:020000040000FA
:040000008031122811
:1000060008007E1480310B1F10282100111C1028B7
:100016002000111C1028AB3154237E1009008031BA
:1000260014282300A93176218031E500A9317721F2
:100036008031E600A93178218031E700A9317921A4
:100046008031E80088308400273085006830FE0063
:100056000030FF00A931E32180312200EE01EF01DB
:10006600A0308400013085004530FE000030FF00DE
:10007600A931E321803120308400023085004C30E4
:10008600FE000030FF00A931E3218031A03084005A
:10009600023085004930FE000030FF00A931E3211F
:1000A600803120308400033085003230FE0000307D
:1000B600FF00A931E3218031A030840003308500A0
:1000C6005030FE000030FF00A931E3217E102000F1
:1000D600AA31092A22006E082D3E860002308700CA
:1000E6000030C03FC13F6E08323E860002308700B6
:1000F6008101810A6E082D3E86000230870002309B
:10010600C03F0030C13F6E082F3E86000230870098
:100116000230C03F0030C13F05302100E000220020
:100126006E08313E8600023087002100600881009B
:100136000530E0006008ED0022006E089431B72417
:100146008031CC2D22006E08860002308700403FA9
:100156002100E000413FE100230050082100610634
:10016600031DB92823004F0821006006031DCC2D6E
:1001760022006E080C3E860002308700403F2100B8
:10018600E000413FE100423FE200433FE30023003D
:10019600540821006306031DE028230053082100AC
:1001A6006206031DE0282300520821006106031D94
:1001B600E0282300510821006006031DCC2D2200F3
:1001C6006E08023E8600023087000030C03F0030D5
:1001D600C13FC23FC33F6E08063E8600023087001D
:1001E6000030C03FC13F6E08103E860002308700D7
:1001F6000030C03F0030C13FC23FC33F6E08143ECF
:100206008600023087000030C03F0030C13FC23F49
:10021600C33F6E08083E8600023087000030C03FAC
:100226000030C13FC23FC33F6E080C3E860002301D
:1002360087000030C03F0030C13FC23FC33F6E0859
:10024600183E8600023087000030C03FC13F6E086E
:100256001C3E860002308700B430C03F0530C13FE7
:100266002100ED01ED0ACC2D22006E08313E8600FC
:10027600023087000108031945296E089431B72416
:100286008031CC2D04302100E00022006E08323E81
:1002960086000230870021006008810022006E0877
:1002A6009431B7248031003A0319CC2D22006E0810
:1002B600023E8600023087000030C03F0030C13F5A
:1002C600C23FC33F6E08063E8600023087000030FC
:1002D600C03FC13F6E08103E8600023087000030E6
:1002E600C03F0030C13FC23FC33F6E08143E860088
:1002F600023087000030C03F0030C13FC23FC33FDD
:100306006E08083E8600023087000030C03F00308D
:10031600C13FC23FC33F6E080C3E860002308700D5
:100326000030C03F0030C13FC23FC33F6E08183E99
:100336008600023087000030C03FC13F6E081C3E79
:10034600860002308700B430C03F0530C13F3329F4
:1003560021006C08003A03196D28043A8F310319FD
:100366002C2F8031013A0319E52D0C3A0319A528E3
:10037600033A0319A528063A03193729CC2D22007A
:100386006E08023E860002308700403F2100E000F2
:10039600413FE100423FE200433FE30023002308E0
:1003A60021006306031DE7292300220821006206B7
:1003B600031DE7292300210821006106031DE72903
:1003C6002300200821006006031DCC2D22006E08A4
:1003D6000C3E860002308700403F2100E000413F8E
:1003E600E100423FE200433FE300230054082100BE
:1003F6006306031D0E2A2300530821006206031D0F
:100406000E2A2300520821006106031D0E2A23002E
:10041600510821006006031DCC2D22006E08143EF3
:10042600860002308700403F2100E000413FE100A6
:10043600423FE200433FE3002300580821006302E5
:10044600031D352A2300570821006202031D352AA1
:100456002300560821006102031D352A2300550892
:10046600210060020318CC2D0130E0000030E100CD
:100476000030E2000030E30022006E08103E8600E5
:1004860002308700403F2100E007413FE13D423F07
:10049600E23D433FE33D2300580821006302031D6C
:1004A600642A2300570821006202031D642A2300E0
:1004B600560821006102031D642A23005508210005
:1004C6006002031CCC2D0830CD3E8600013087002B
:1004D60022006E08103E840002308500403F000274
:1004E6002100EA000131413F003BEB0022006E088B
:1004F600223E86000230870021006A080102E000E1
:1005060022006E08223E8600023087002100600825
:10051600810022006E08233E860002308700403F9D
:100526002100E000413FE1006A086007E2006B0835
:10053600613DE30022006E08233E860002308700FC
:1005460021006208C03F6308C13FFF30E000FF3072
:10055600E100FF30E200FF30E3000830CD3E8600C8
:1005660001308700403FE007413FE13D423FE23D29
:10057600433FE33D22006E08143E860002308700AA
:1005860021006008C03F6108C13F6208C23F63089E
:10059600C33F22006E08103E86000230870023000B
:1005A6005508C03F5608C13F5708C23F5808C33FC9
:1005B60022006E08233E86000230870016000104E2
:1005C600031DFD2A6E08253E860002308700023094
:1005D6000106031D0F2B6E08253E8600023087009C
:1005E60081016E082D3E8600023087000030C03F34
:1005F600C13F0F2B6E08233E8600023087006E082F
:10060600263E840002308500403F803F413F813FC7
:100616006E089431B7248031230030083104031961
:10062600CC2D22006E08083E86000230870023008B
:100636005108C03F5208C13F5308C23F5408C33F48
:1006460031082000EE00230030082000ED00A6311E
:1006560080268031CC2D22006E08323E8600023084
:1006660087008101810A05302100E0006008ED0065
:1006760022006E089431B7248031CC2D22006E08FA
:10068600263E8600023087000030C03FC13F6E081C
:10069600103E86000230870023005508C03F5608EA
:1006A600C13F5708C23F5808C33F01302100E00050
:1006B6000030E1000030E2000030E30022006E0866
:1006C6000C3E860002308700403F2100E007413F94
:1006D600E13D423FE23D433FE33D22006E080C3ED2
:1006E60086000230870021006008C03F6108C13FD4
:1006F6006208C23F6308C33F0430E00022006E0870
:10070600333E860002308700210060088100220007
:100716006E082D3E8600023087000230C03F003052
:10072600C13F6E082F3E8600023087000230C03F70
:100736000030C13F05302100E00022006E08313E46
:100746008600023087002100600881001130E00039
:1007560022006E08323E86000230870021006008C3
:1007660081000930E0006008ED0022006E08943137
:10077600B7248031CC2D0430E00022006E08323ED2
:1007860086000230870021006008810022006E0882
:100796009431B7248031ED0122006E08903101209A
:1007A6008031CC2D22006E08313E86000230870053
:1007B60001080319E32B6E089431B7248031CC2D40
:1007C60004302100E00022006E08323E860002302E
:1007D600870021006008810022006E089431B7244A
:1007E6008031003A0319CC2DED0122006E089031BC
:1007F60001208031CC2D21006C08003A03192E2BE4
:10080600043A0319C229023A0319CC2D013A0319F5
:10081600412B0E3A0319BE2B033A0319BE2B063A97
:100826000319D52BCC2D1030E00022006E08323E85
:1008360086000230870021006008810022006E08D1
:100846009431B7248031003A0319CC2D0830532C4B
:1008560022006E082D3E8600023087000230C03F1F
:100866000030C13F6E08313E8600023087008101AC
:10087600810A06302100532C1030E00022006E0859
:10088600323E860002308700210060088100220087
:100896006E089431B7248031003A0319CC2D0A3002
:1008A600E0006008ED00CC2D22006E08313E860087
:1008B6000230870001080319652C6E089431B724AD
:1008C6008031CC2D04302100E00022006E08323E3B
:1008D60086000230870021006008810022006E0831
:1008E6009431B7248031003A0319CC2DED01220052
:1008F6006E08903101208031CC2D21006C08043A1D
:1009060003192B2C023A0319162C013A03193F2C12
:100916000B3A0319572CCC2D4A2C22006E08313E77
:10092600860002308700010803199E2C6E08943158
:10093600B7248031CC2D04302100E00022006E085F
:10094600323E8600023087002100600881002200C6
:100956006E089431B7248031003A0319CC2DED018D
:1009660022006E08903101208031CC2D21006C08C8
:10097600063A03198F2C0A3A0319902CCC2D210024
:100986006C08043A0319522CCC2D22006E08023E44
:10099600860002308700403F2100E000413FE10031
:1009A600423FE200433FE3002300230821006306A1
:1009B600031DED2C2300220821006206031DED2CE9
:1009C6002300210821006106031DED2C23002008C9
:1009D60021006006031DCC2D22006E08063E86000F
:1009E60002308700403F2100E000413FE100230044
:1009F6004E0821006106031D042D23004D08210029
:100A06006006031DCC2DED0122006E0890310120F9
:100A16008031CC2D22006E08313E860002308700E0
:100A2600010803191B2D6E089431B7248031CC2D93
:100A360004302100E00022006E08323E86000230BB
:100A4600870021006008810022006E089431B724D7
:100A56008031003A0319CC2DED0122006E08903149
:100A660001208031CC2D21006C08043A0319C82CD2
:100A7600033A0319C82C0B3A03190D2DCC2D21006E
:100A8600ED0122006E08903101208031CC2D22002C
:100A96006E082D3E8600023087000230C03F0030CF
:100AA600C13F6E082F3E8600023087000230C03FED
:100AB6000030C13F03302100E00022006E08313EC5
:100AC6008600023087002100600881000230E000C5
:100AD60022006E08323E8600023087002100600840
:100AE600810022006E089431B72480310230E00084
:100AF6006008ED00E901E90ACC2D22006E08023EED
:100B06008600023087000030C03F0030C13FC23F40
:100B1600C33F6E08063E8600023087000030C03FA5
:100B2600C13F2100ED01ED0A7D2D21006C08013A3F
:100B360003194A2D033A0319802DCC2D22006E0885
:100B4600293E8600023087000108003A0319982DD5
:100B5600013A8B310319882B8031033A0319E72DAB
:100B6600013A0319AB29073A0319FE2B013A031977
:100B7600802C033A0319B92C013A0319CC2D0F3AEC
:100B86000319C22C013A0319362D033A0319422DD3
:100B9600CC2D0D302100E00022006E082A3E860092
:100BA600023087002100600881006D08E000220005
:100BB6006E08293E86000230870021006008810009
:100BC600690808008E319F2E8E31872E240044102E
:100BD60044114412C412C601C7012300B5010830EE
:100BE600890BF32D0000A9319D21853104302000A9
:100BF600A5003D30890BFD2DA50BFD2D0032FD30E6
:100C0600AB312523853101390319022E2300A601B4
:100C1600A70180302000A5002508F400FE30AA3187
:100C26006D2285312330FA001A30FB000430AC31D6
:100C360048248531FF30FA001F30FB000630AC3106
:100C4600482485310030FA00FB000830AC314824D6
:100C560085312130FA001A30FB000A30AC314824C5
:100C6600853123002708FB002608FA000030AC3146
:100C7600482485310030FA00FB000030AC314824AE
:100C860085312330FA001A30FB000230AC3148249B
:100C96008531A9302000A5002508F4005830883198
:100CA60000208531A9317A21853171082300A900F8
:100CB6007008A8000D302000A5002508F40080303B
:100CC60088310020853122302000A5002508F40057
:100CD600823088310020853140302000A50025086B
:100CE600F40083308831002085311230FA000C3050
:100CF600FB008630AC314824853112302000A50037
:100D06002508F4008430883100208531DC30FA0073
:100D16000530FB008A30AC31482485312300280891
:100D260084002908850000082000A5002508F40095
:100D3600C4308831002085310000230029082000B6
:100D4600A600230028082000A500013025078400FE
:100D560026080318260A85000008A7002708F400BD
:100D6600C530883100208531000023002908200085
:100D7600A600230028082000A500023025078400CD
:100D860026080318260A85000008A7002708F4008D
:100D9600C230883100208531000023002908200058
:100DA600A600230028082000A5000330250784009C
:100DB60026080318260A85000008A7002708F4005D
:100DC600C330883100208531000023002908200027
:100DD600A600230028082000A5000430250784006B
:100DE60026080318260A85000008A7002708F4002D
:100DF600C0308831002085310000230029082000FA
:100E0600A600230028082000A50005302507840039
:100E160026080318260A85000008A7002708F400FC
:100E2600C130883100208531000004302000A50043
:100E36002508F400FF30883100208531003020007D
:100E4600A000A1000030AB31E12385310030A000C5
:100E56000130A1001030AB31E12385317230A000A2
:100E66000430A1001430AB31E1238531DB30A5001D
:100E76002508F400FB308831002085311230FA0055
:100E86000030FB001230AC3148248531AA313822BB
:100E960008002200A401A50101302400DE0700306D
:100EA600DF3D0030E03D0030E13D23003208013EE9
:100EB600B2000030333DB300043033020030031972
:100EC600320203186A2F0030B2000430B300220049
:100ED6006F08A0002008A6002608031908002300B2
:100EE60036082200A000A101A01BA1032508803A14
:100EF600A2002108803A2202031D832F2008240223
:100F060003180800220026082D3E860002308700BE
:100F1600160001040319EE2F26082D3E8600023026
:100F26008700403FA000413FA1002008FF3EA200ED
:100F3600FF30213DA30026082D3E860002308700A3
:100F46002208C03F2308C13F26082D3E86000230F6
:100F5600870016000104031DEE2F26082A3E860090
:100F6600023087000D300106031DEE2F26082F3EA6
:100F760086000230870026082D3E84000230850058
:100F8600403F803F413F813F2608313E8600023088
:100F9600870001080319DE2F2608313E860002303D
:100FA60087000108FF3EA0002608313E8600023079
:100FB6008700200881000C30A00026082A3E860003
:100FC60002308700200881002608A0002008EE00D5
:100FD6008A3186228731220026082B3E860002307F
:100FE60087000108A0002008A6000130A4070030F1
:100FF600A53D6F2F20001B140800F5007508AD31C4
:10100600C125883122000E1375081F394038A931D1
:10101600A52188317408A931A52122000E170800E0
:101026002100EE0100302300A3000030A2000030B2
:10103600A1000030A000B001B101CD30F1000130B7
:10104600F2001430F3000030F400AF313F2788314E
:10105600EE0123004F085004031908004D084E0402
:1010660003190800FF304D052200A60000302300BA
:101076004E052200A7002608A700A6012608230081
:101086004E04CD00220027082300CE00FF304F0576
:101096002200A6000030230050052200A7002608E3
:1010A600A700A6010230CD3E860001308700403FF2
:1010B600A900413FAA002A08A900AA01FF30290574
:1010C600AB0000302A05AC0026082B042300CF0015
:1010D600220027082C042300D00022006F08A60057
:1010E60026082100EF00A52821006F08860002309F
:1010F6008700403F2200A600413FA70027082300A3
:101106005006031D8A282200260823004F06031DC9
:10111600932821006F082200A6002608EE00B328B7
:1011260021006F082B3E860002308700010822004E
:10113600A60026082100EF0001302200A60026089E
:101146002100EE076F080319B3286E08803A2200C3
:10115600A60023003608803A2200A602031C772840
:1011660022006E08031908006E08063E860002304B
:101176008700403FA600413FA70023004E082200FB
:101186002706031DCA2823004D0822002606031938
:10119600DF286E08023E860002308700403FA60028
:1011A600413FA700423FA800433FA9002908280461
:1011B60027042604031D080023082300A300220099
:1011C60022082300A200220021082300A1002200F9
:1011D60020082300A000590E0F392200A600A701FF
:1011E600A635A70DA635A70D260824022300B000B4
:1011F60022002708253B2300B100A7313F2788316D
:10120600013A031D08002300DA1C0F295A1E0D2976
:1012160005302229033022295A1C17295A1E15295E
:1012260007302229063022295A1D1F295A1E1D2938
:101236000A302229093022295A1E2B29043022007D
:10124600A6006E082A3E8600023087002608810026
:101256000830CD3E860001308700FF3001052200B0
:10126600A600413100300105A700413100300105DB
:10127600A800413100300105A9001830A635A70D98
:10128600A80DA90D890B41290830CD3E86000130F5
:10129600870000300105AA004131FF300105AB008F
:1012A600413100300105AC00413100300105AD008F
:1012B6000830AA35AB0DAC0DAD0D890B5C2900309D
:1012C600AE00FF30AF000030B0000030B1002300A8
:1012D60055082200B200230056082200B30023005E
:1012E60057082200B400230058082200B500083031
:1012F600B536B40CB30CB20C890B7B293208AE059B
:101306003308AF053408B0053508B105FF30B6001F
:101316000030B7000030B8000030B900230055088F
:101326002200BA00230056082200BB0023005708FB
:101336002200BC00230058082200BD001830BD362C
:10134600BC0CBB0CBA0C890BA2293A08B6053B08A3
:10135600B7053C08B8053D08B9053608AE04370898
:10136600AF043808B0043908B1042E08AA042F08BF
:10137600AB043008AC043108AD042A08A6042B08D7
:10138600A7042C08A8042D08A90429082300D800BE
:10139600220028082300D700220027082300D600B1
:1013A600220026082300D5000430CD3E86000130F9
:1013B6008700FF3001052200A600413100300105FB
:1013C600A700413100300105A80041310030010578
:1013D600A9001830A635A70DA80DA90D890BED2972
:1013E6000430CD3E86000130870000300105AA009A
:1013F6004131FF300105AB00413100300105AC0041
:10140600413100300105AD000830AA35AB0DAC0DF9
:10141600AD0D890B082A0030AE00FF30AF0000305A
:10142600B0000030B100230051082200B2002300B2
:1014360052082200B300230053082200B400230000
:1014460054082200B5000830B536B40CB30CB20C03
:10145600890B272A3208AE053308AF053408B005D4
:101466003508B105FF30B6000030B7000030B800CF
:101476000030B900230051082200BA0023005208A8
:101486002200BB00230053082200BC00230054089E
:101496002200BD001830BD36BC0CBB0CBA0C890B43
:1014A6004E2A3A08B6053B08B7053C08B8053D087C
:1014B600B9053608AE043708AF043808B004390851
:1014C600B1042E08AA042F08AB043008AC04310876
:1014D600AD042A08A6042B08A7042C08A8042D0886
:1014E600A90429082300D400220028082300D300D9
:1014F600220027082300D200220026082300D1005C
:101506008A31862208002100E90122006E08293E60
:1015160086000230870001082100E0006008ED0027
:1015260022006E082A3E860002308700010821004C
:10153600E0006008EC0022006E088600023087009A
:10154600403FF000413FF100A931EF218A31003AD6
:101556000319B52A09302100E0006008EC00A93122
:101566006E218A318531A12D22006E08023E860049
:101576000230870023002008C03F2108C13F22080F
:10158600C23F2308C33F22006E08063E8600023093
:10159600870023004D08C03F4E08C13F22006E0859
:1015A600143E8600023087000030C03F0030C13F45
:1015B600C23FC33F6E08083E860002308700230004
:1015C6005108C03F5208C13F5308C23F5408C33FA9
:1015D60001302100E0000030E1000030E200003080
:1015E600E30022006E08083E860002308700403F76
:1015F6002100E007413FE13D423FE23D433FE33DFD
:1016060022006E080C3E860002308700210060082A
:10161600C03F6108C13F6208C23F6308C33FFF3055
:1016260023005B052100E000003023005C0521005B
:10163600E1006008E100E0010E30CD3E8600013099
:101646008700403FE300413FE4006408E300E40113
:10165600FF306305E50000306405E60060086504B8
:10166600E70061086604E80022006E08183E86005E
:101676000230870021006708C03F6808C13F22008A
:101686006E081C3E86000230870023006508C03FB6
:101696006608C13F12302100E00022006E08323E8B
:1016A60086000230870021006008810022006E0853
:1016B6002D3E8600023087000230C03F0030C13F19
:1016C6006E082F3E8600023087000230C03F003091
:1016D600C13F03302100E00022006E08313E860043
:1016E6000230870021006008810022006E089431D4
:1016F600B7248A3103308431532CED0122006E0861
:10170600903101208A318531CC2D21006C08003AB8
:101716000319802B033A0319B72A862B862B22003E
:101726006E08083E86000230870023005108C03F3D
:101736005208C13F5308C23F5408C33F013021003D
:10174600E0000030E1000030E2000030E300043049
:10175600CD3E860001308700403FE007413FE13D36
:10176600423FE23D433FE33D22006E080C3E8600C9
:101776000230870021006008C03F6108C13F62084F
:10178600C23F6308C33FFF3023005B052100E00032
:10179600003023005C052100E1006008E100E00163
:1017A6000E30CD3E860001308700403FE300413FCA
:1017B600E4006408E300E401FF306305E50000305F
:1017C6006405E60060086504E70061086604E80051
:1017D60022006E08183E8600023087002100670846
:1017E600C03F6808C13F22006E081C3E86000230DA
:1017F600870023006508C03F6608C13F22006E08C7
:101806002D3E8600023087000230C03F0030C13FC7
:101816006E082F3E8600023087000230C03F00303F
:10182600C13F03302100E00022006E08313E8600F1
:10183600023087002100600881001230E00022009B
:101846006E08323E722B22006E082D3E8600023054
:1018560087000030C03FC13F01302100E00000306A
:10186600E1000030E2000030E30022006E08103E86
:10187600860002308700403F2100E007413FE13DFE
:10188600423FE23D433FE33D230058082100630603
:10189600031D5D2C2300570821006206031D5D2CE5
:1018A6002300560821006106031D5D2C2300550800
:1018B60021006006031D082D0130E0000030E10024
:1018C6000030E2000030E30022006E08103E860081
:1018D60002308700403F2100E007413FE13D423FA3
:1018E600E23D433FE33D22006E08103E8600023093
:1018F600870021006008C03F6108C13F6208C23FFF
:101906006308C33F1030E00022006E08323E8600B6
:101916000230870021006008810022006E08083E20
:1019260086000230870023005108C03F5208C13F9D
:101936005308C23F5408C33F01302100E000003085
:10194600E1000030E2000030E3000430CD3E8600C6
:1019560001308700403FE007413FE13D423FE23D25
:10196600433FE33D22006E080C3E860002308700AE
:1019760021006008C03F6108C13F6208C23F63089A
:10198600C33FFF3023005B052100E0000030230049
:101996005C052100E1006008E100E0010E30CD3E6B
:1019A600860001308700403FE300413FE4006408C1
:1019B600E300E401FF306305E50000306405E6005E
:1019C60060086504E70061086604E80022006E0806
:1019D600183E86000230870021006708C03F68086D
:1019E600C13F22006E081C3E86000230870023009D
:1019F6006508C03F6608C13F22006E089431B724CF
:101A06008A31003A0319862B2A2F22006E08103ECF
:101A160086000230870023005508C03F5608C13FA4
:101A26005708C23F5808C33F14302100E000220087
:101A36006E08323E86000230870021006008810071
:101A460022006E089431B7248A31003A0319862B96
:101A5600ED0122006E08903101208A31862B22008A
:101A66006E082D3E8600023087000030C03FC13F21
:101A760001302100E0000030E1000030E2000030DB
:101A8600E30022006E08103E860002308700403FC9
:101A96002100E007413FE13D423FE23D433FE33D58
:101AA6002300580821006306031D692D23005708EB
:101AB60021006206031D692D2300560821006106D8
:101AC600031D692D2300550821006006031D0C2EF9
:101AD6000130E0000030E1000030E2000030E300B9
:101AE60022006E08103E860002308700403F21002B
:101AF600E007413FE13D423FE23D433FE33D2200F7
:101B06006E08103E86000230870021006008C03F44
:101B16006108C13F6208C23F6308C33F1030E0005E
:101B260022006E08323E86000230870021006008DF
:101B3600810022006E08083E8600023087002300DE
:101B46005108C03F5208C13F5308C23F5408C33F23
:101B560001302100E0000030E1000030E2000030FA
:101B6600E3000430CD3E860001308700403FE007A9
:101B7600413FE13D423FE23D433FE33D22006E08E7
:101B86000C3E86000230870021006008C03F6108D5
:101B9600C13F6208C23F6308C33FFF3023005B05B5
:101BA6002100E000003023005C052100E100600810
:101BB600E100E0010E30CD3E860001308700403F57
:101BC600E300413FE4006408E300E401FF306305FD
:101BD600E50000306405E60060086504E70061087A
:101BE6006604E80022006E08183E86000230870070
:101BF60021006708C03F6808C13F22006E081C3EEE
:101C060086000230870023006508C03F6608C13F92
:101C1600EF2F22006E08103E860002308700230058
:101C26005508C03F5608C13F5708C23F5808C33F32
:101C360004302100E00022006E08323E86000230A9
:101C4600870021006008810022006E089431B724C5
:101C56008A31003A0319862BED0122006E08903175
:101C660001208A31862BED0122006E089031012079
:101C76008A31862B22006E08313E860002308700AC
:101C860001080319652E6E089431B7248A31003A8B
:101C96000319862B22006E08323E8600023087002A
:101CA600011D5D2E2100ED0122006E0890310120FC
:101CB6008A31862B6E08323E860002308700011E6E
:101CC600862BEF2F04302100E00022006E08323E02
:101CD60086000230870021006008810022006E081D
:101CE6009431B7248A31003A0319862BED0122007C
:101CF6006E08903101208A31862BED0122006E0894
:101D0600903101208A31862B21006C08003A031994
:101D1600362E033A0319922B073A0319322D013A4C
:101D26000319262C0C3A0319802E033A0319802E28
:101D3600063A03193D2E862B22006E0886000230D5
:101D46008700403F2100E000413FE10023005008AA
:101D560021006106031DB32E23004F0821006006F3
:101D6600031D862B22006E082D3E8600023087005A
:101D76000030C03FC13F6E08023E86000230870039
:101D8600403F2100E000413FE100423FE200433F87
:101D9600E3002300230821006306031DE22E23002F
:101DA600220821006206031DE22E230021082100DD
:101DB6006106031DE22E2300200821006006031D94
:101DC600F42F22006E08063E860002308700403F50
:101DD6002100E000413FE10023004E08210061069A
:101DE600031DF92E23004D0821006006031DF42F64
:101DF6000130E0000030E1000030E2000030E30096
:101E060022006E08103E860002308700403F210007
:101E1600E007413FE13D423FE23D433FE33D2300D2
:101E2600580821006306031D282F230057082100A8
:101E36006206031D282F2300560821006106031D94
:101E4600282F2300550821006006031DF42F0430B7
:101E5600F12F22006E08023E860002308700403FC6
:101E66002100E000413FE100423FE200433FE30042
:101E76002300230821006306031D512F2300220897
:101E860021006206031D512F23002108210061064F
:101E9600031D512F2300200821006006031D862BF9
:101EA60022006E08063E860002308700403F210071
:101EB600E000413FE10023004E0821006106031DBA
:101EC600682F23004D0821006006031D862B220083
:101ED6006E080C3E860002308700403F2100E0007D
:101EE600413FE100423FE200433FE3002300540844
:101EF60021006306031D8F2F23005308210062066D
:101F0600031D8F2F2300520821006106031D8F2F0A
:101F16002300510821006006031D862B0130E000D6
:101F26000030E1000030E2000030E30022006E08DD
:101F3600103E860002308700403F2100E007413F07
:101F4600E13D423FE23D433FE33D23005808210087
:101F56006306031DBE2F2300570821006206031DDA
:101F6600BE2F2300560821006106031DBE2F230045
:101F7600550821006006031D862B0130E000003065
:101F8600E1000030E2000030E30022006E08103E5F
:101F9600860002308700403F2100E007413FE13DD7
:101FA600423FE23D433FE33D22006E08103E86007D
:101FB6000230870021006008C03F6108C13F620807
:101FC600C23F6308C33F22006E082D3E86000230E2
:101FD60087000030C03FC13F04302100E0006008A8
:101FE600ED000330E00022006E08333E860002302A
:0A1FF6008700210060088100862B9F
:10200200F1007108023E8600023087000030C03FB6
:102012000030C13FC23FC33F7108063E8600023016
:1020220087000030C03FC13F7108103E8600023079
:1020320087000030C03F0030C13FC23FC33F71083C
:10204200143E8600023087000030C03F0030C13F9E
:10205200C23FC33F7108083E86000230870000304D
:10206200C03F0030C13FC23FC33F71080C3E8600F3
:10207200023087000030C03F0030C13FC23FC33F43
:102082007108183E8600023087000030C03FC13F11
:1020920071082D3E8600023087000030C03FC13FEC
:1020A20071082F3E8600023087000030C03FC13FDA
:1020B2007108313E86000230870081017108323E8C
:1020C2008600023087008101710886000230870095
:1020D2000030C03FC13F7108263E860002308700B3
:1020E2000030C03FC13F7108283E860002308700A1
:1020F20081010430F0007108333E8600023087000F
:10210200700881000800EC01240023082204210445
:102112002004031D9128113020005D06031D532960
:10212200240020037F30031923062104220403190B
:1021320053292000590A031DA6285A0A031DA6285E
:102142005B0A03195C0A0319562900305904DE00A0
:1021520000305A04DF0000305B04E000FF305C0412
:10216200E1005E0A031DBD285F0A031DBD28600A47
:102172000319610A0319562900305904DE000030A0
:102182005A04DF00FF305B04E000FF305C04E10032
:102192005E0A031DD4285F0A031DD428600A0319AE
:1021A200610A0319562900305904DE00FF305A042F
:1021B200DF00FF305B04E000FF305C04E1005E0AF8
:1021C200031DEB285F0A031DEB28600A0319610A4D
:1021D2000319562924002C082000DE0024002D08B3
:1021E2002000DF0024002E082000E00024002F0839
:1021F2002000E1002400200820005906E20024000B
:10220200210820005A06E3002400220820005B0671
:10221200E4002400230820005C06E5006208DE05D5
:102222006308DF056408E0056508E10561086004EC
:102232005F045E04031D26295C08E9005B08E800D0
:102242005A08E7005908E60033291030203E86007C
:1022520002308700403FE600413FE700423FE8008E
:10226200433FE9006908F3006808F2006708F100DB
:102272006608F000AE315D2690317108EB007008FF
:10228200EA006A086B04031D5A296908A900680854
:10229200A8006708A7006608A6009A31ED22DE00B2
:1022A2005E08EC0020006C0808006F30EA00B030D5
:1022B200EB006B08A1006A08A0000030A200083001
:1022C200A3009931ED2190312000DE005E08EC0080
:1022D2006C03031D53290030F1004530F200AA318E
:1022E200BB2290310030F100F200AA31BB229031C2
:1022F200AA30F4005530F3004030F2000030F10013
:10230200AB31A42390314030AA31492290312000D0
:102312005D08AA31492290310030F100F200AA3161
:10232200BB22903124002308F4002208F300210884
:10233200F2002008F100AB31A423903120005C08A8
:10234200F4005B08F3005A08F2005908F100AB31BF
:10235200A4239031240023082300C800240022086B
:102362002300C700240021082300C60024002008FF
:102372002300C50020005C082300CC0020005B087D
:102382002300CB0020005A082300CA00200059086D
:102392002300C90020005D08DE005E082300C200A1
:1023A20053292200D101D20114302000A8000030AC
:1023B200A9000030AA00AB00AE3193269131290862
:1023C2002200D400200028082200D300530854041D
:1023D200031D0800A93195219131B930F100013076
:1023E200F2001430F3000030F400AF313F27913196
:1023F2002300390E0F39043A031D08001030B93E8C
:10240200860001308700403F2200D500413FD600C0
:10241200423FD700433FD800FF305505BE00003091
:102422005605BF0000305705C00000305805C100F6
:102432001830BE35BF0DC00DC10D890B1A2A0030F0
:102442005505C200FF305605C30000305705C400D1
:1024520000305805C5000830C235C30DC40DC50D86
:10246200890B2D2A0030C600FF30C7000030C8009B
:102472005608C6055708C7055808C8055808C900B0
:10248200CA01CB014908C6044A08C7044B08C8045C
:102492004608CC004708CD004808CE00CF014C08C2
:1024A200C2044D08C3044E08C4044F08C5043E08C4
:1024B20042042300C90022003F0843042300CA004B
:1024C2002200400844042300CB00220041084504B6
:1024D2002300CC0001302200D5070030D63D003069
:1024E200D73D0030D83D0C30B93E86000130870020
:1024F200403FD500413FD600423FD700433FD8007E
:10250200FF305505BE0000305605BF0000305705AC
:10251200C00000305805C1001830BE35BF0DC00DD7
:10252200C10D890B8E2A00305505C200FF305605B9
:10253200C30000305705C40000305805C5000830FC
:10254200C235C30DC40DC50D890BA12A0030C600CA
:10255200FF30C7000030C8005608C6055708C70537
:102562005808C8055808C900CA01CB014908C60461
:102572004A08C7044B08C8044608CC004708CD00E7
:102582004808CE00CF014C08C2044D08C3044E08CF
:10259200C4044F08C5043E0842042300C5002200BB
:1025A2003F0843042300C6002200400844042300DD
:1025B200C7002200410845042300C800450A031D44
:1025C200EA2A460A031DEA2A470A0319480A031996
:1025D20008002400230823004C06031D002B2400BE
:1025E200220823004B06031D002B24002108230090
:1025F2004A06031D002B2400200823004906031964
:10260200B42B4C084B044A0449040319B42B490A5D
:10261200031D132B4A0A031D132B4B0A03194C0AE1
:102622000319B42B4C084B044A0449040319452BE3
:10263200FF30240020042200BE00FF3024002104C9
:102642002200BF00FF30240022042200C00000301C
:10265200240023042200C10023004C08220041066A
:10266200031D432B23004B0822004006031D432B6E
:1026720023004A0822003F06031D432B230049087A
:1026820022003E060319B42B23004C084B044A04D3
:1026920049040319782BFF30240020042200BE00D5
:1026A200FF30240021042200BF0000302400220455
:1026B2002200C0000030240023042200C1002300B5
:1026C2004C0822004106031D762B23004B082200F2
:1026D2004006031D762B23004A0822003F06031DF5
:1026E200762B2300490822003E060319B42B23004F
:1026F2004C084B044A0449040319AB2BFF30240055
:1027020020042200BE000030240021042200BF0069
:102712000030240022042200C000003024002304E0
:102722002200C10023004C0822004106031DA92BF0
:1027320023004B0822004006031DA92B23004A0850
:1027420022003F06031DA92B2300490822003E0652
:102752000319B42B23004903E03003194C064A0441
:102762004B04031D0800FF3023003B052200BE007E
:10277200003023003C052200BF003E08BF00BE011E
:102782000230B93E860001308700403FC100413F20
:10279200C2004208C100C201FF304105C30000303F
:1027A2004205C4003E0843042300BB0022003F0848
:1027B20044042300BC0039080F392200BE00013056
:1027C200BE35FF3E031DE12B3E35BF003F08D00062
:1027D200230039080F392200BE0005303E02031CD7
:1027E2000800230039080F392200BE0006303E02DD
:1027F200031CAD2C5008EC3E2000A000FF30031853
:102802000030A100AE31282608004C084B044A04CF
:1028120049040319080022005008BE00BF013E0807
:1028220023003B022200D1003F0823003C3B220050
:10283200D20052082000A900220051082000A8005E
:102842000030AA00AB00AE31932691312908220054
:10285200D400200028082200D30053085404031D8A
:102862000800B930A331C723080022005008BE0077
:10287200BF013E0823003B022200D1003F08230093
:102882003C3B2200D2005208F1005108F000A43172
:10289200B024913171082200D4007008D30052088C
:1028A2002000A900220051082000A800220054089C
:1028B2002000AB00220053082000AA00AE3193266C
:1028C200913129082200D400200028082200D300D8
:1028D20053085404031D08002300490A031D792CE0
:1028E2004A0A031D792C4B0A03194C0A03190800E2
:1028F2004C084B044A044904031908000C30B93E41
:10290200860001308700403F2400D200413FD300BF
:10291200423FD400433FD50055082200A3002400C3
:1029220054082200A200240053082200A10024001F
:1029320052082200A0005208A5005108A4008831C4
:10294200132008003C082000A10023003B082000BF
:10295200A000AE312826080023004208013A0319DC
:10296200062C073A0319362CA32C08002100D400A8
:102972005408860002308700403FA000413FA1007A
:10298200FF302005A20000302105A3002208A30089
:10299200A2015408860002308700403FA500413F53
:1029A200A6002608A500A601FF302505A7000030D5
:1029B2002605A80022082704C00023082804C10015
:1029C2005408063E860002308700403FA000413F87
:1029D200A100FF302005A20000302105A30022083B
:1029E200A300A2015408063E860002308700403F41
:1029F200A500413FA6002608A500A601FF30250537
:102A0200A70000302605A80022082704C2002308D8
:102A12002804C3005408103E860002308700FF30AD
:102A22000105A000413100300105A1004131003013
:102A32000105A200413100300105A3001830A03584
:102A4200A10DA20DA30D890B202D5408103E860066
:102A52000230870000300105A4004131FF3001053A
:102A6200A500413100300105A600413100300105C9
:102A7200A7000830A435A50DA60DA70D890B3B2D87
:102A82000030A800FF30A9000030AA000030AB00DF
:102A92005408103E860002308700403FAC00413FA0
:102AA200AD00423FAE00433FAF000830AF36AE0C40
:102AB200AD0CAC0C890B572D2C08A8052D08A905C7
:102AC2002E08AA052F08AB05FF30B0000030B10078
:102AD2000030B2000030B3005408103E86000230CD
:102AE2008700403FB400413FB500423FB600433F3C
:102AF200B7001830B736B60CB50CB40C890B7B2D69
:102B02003408B0053508B1053608B2053708B305F3
:102B12003008A8043108A9043208AA043308AB0417
:102B22002808A4042908A5042A08A6042B08A70437
:102B320020082404C40021082504C5002208260414
:102B4200C60023082704C70054080C3E8600023042
:102B52008700FF300105A000413100300105A100CE
:102B6200413100300105A200413100300105A300CE
:102B72001830A035A10DA20DA30D890BBA2D540852
:102B82000C3E86000230870000300105A40041316E
:102B9200FF300105A500413100300105A600413199
:102BA20000300105A7000830A435A50DA60DA70D1C
:102BB200890BD52D0030A800FF30A9000030AA00F3
:102BC2000030AB0054080C3E860002308700403FC4
:102BD200AC00413FAD00423FAE00433FAF00083082
:102BE200AF36AE0CAD0CAC0C890BF12D2C08A80540
:102BF2002D08A9052E08AA052F08AB05FF30B00045
:102C02000030B1000030B2000030B30054080C3E76
:102C1200860002308700403FB400413FB500423F8A
:102C2200B600433FB7001830B736B60CB50CB40C3B
:102C3200890B152E3408B0053508B1053608B205E2
:102C42003708B3053008A8043108A9043208AA04D9
:102C52003308AB042808A4042908A5042A08A604FA
:102C62002B08A70420082404C80021082504C90051
:102C720022082604CA0023082704CB004C10F13096
:102C8200CC054C080F395038CC0054081A3E860047
:102C920002308700403FA000413FA100FF302005E5
:102CA200A20000302105A3002208A300A2015408BB
:102CB2001A3E860002308700403FA500413FA60031
:102CC2002608A500A601FF302505A700003026052D
:102CD200A80022082704CE0023082804CF00D00130
:102CE200D101D201D3015408323E8600023087005E
:102CF200010806390319802EBE01BF01232F540893
:102D0200283E860002308700010303197D2E5408F5
:102D1200263E860002308700403FBE00413FBF0092
:102D22003E083F040319232F5408183E8600023040
:102D3200870016000104031DA72E5408183E8600C2
:102D4200023087000130C03F0030C13F5408183EB6
:102D5200860002308700403FA000413FA1003F08AB
:102D62002102031DB62E3E0820020318C12E54086C
:102D7200183E860002308700403FBE00413FBF0040
:102D820054081C3E860002308700403FA000413FAD
:102D9200A1003F082102031DD02E3E082002031885
:102DA200DB2E54081C3E860002308700403FBE00E6
:102DB200413FBF005408213E8600023087000108CF
:102DC200A0002008B8005408223E86000230870086
:102DD20001083E07A0005408223E86000230870008
:102DE200200881005408263E860002308700403FBA
:102DF200A000413FA1003E082002A2003F08213B63
:102E0200A3005408233E8600023087002208C03FF8
:102E12002308C13F5408233E860002308700160073
:102E22000104031D232F5408323E8600023087001E
:102E320001080838A0005408323E8600023087009C
:102E4200200881005408323E8600023087000108C3
:102E5200A0002008CD003E08143EBB0000303F3DDC
:102E6200BC005408023E860002308700403F20002A
:102E7200D900413FDA00423FDB00433FDC0006302D
:102E82002100A00020082000DD0090318420943130
:102E92002100A1002108BD003D03031DB12FC03058
:102EA200F1000030F2001430F3000030F400AC31D5
:102EB200E224943121003E083F0403196D2F3808A3
:102EC200F100FF39031D0330F2003F08F4003E0811
:102ED200F300AC31E224943121003B08063EB900F4
:102EE20000303C3DBA001A302000A0000030A100A2
:102EF20021003B08083E2000A200003021003C3D9A
:102F02002000A30021003A082000A5002100390872
:102F12002000A400A5312925943121082100BA00FE
:102F2200200020082100B90002302000A00000305B
:102F3200A1003230A2000030A300B930AF317E27A9
:102F4200943121003C082000B40021003B082000FD
:102F5200B300A031182094312100A0002008BD0048
:102F62003D030319D62F5408313E860002308700F4
:102F72000108013EA0005408313E8600023087005D
:102F82002008810054082D3E86000230870016007A
:102F92000104031DFE2F54082D3E860002308700D7
:102FA2000230C03F0030C13FFE2F5408103E860061
:102FB20002308700403FA000413FA100423FA200F3
:102FC200433FA3003E08A4003F08A500A601A701B5
:102FD2002408A0072508A13D2608A23D2708A33DF5
:102FE2005408103E8600023087002008C03F2108A6
:0E2FF200C13F2208C23F2308C33F3D0808002C
:1030040020000C190800FC30AB3125239831200036
:10301400A2002208A6001130AD316225983175084E
:103024002000A4007408A300261E3E282400441691
:103034004411AA31382298312000A41D30281530BB
:10304400FA000030FB008430AC3148249831F4019C
:10305400F40A1130AA316D2298313E281230FA0058
:103064000030FB008430AC3148249831F401F40A78
:103074001130AA31802298312000A61D4C2824004A
:10308400C41208302000A2002208F400FC30AA3147
:10309400802298312000261B56285930AB31252335
:1030A4009831003A031958282400C4142000260833
:1030B400A2002208F400FC308831002008002430EB
:1030C400A8002808AC002308A9002208A800A20A26
:1030D4000319A30A28088400290885000008AA0007
:1030E4002A08B100310803191F29253031060319B4
:1030F40086282008860021088700310881000130D5
:10310400A0070030A13D6528AD012308A9002208CD
:10311400A800A20A0319A30A280884002908850024
:103124000008B100003A03191F29643A03199E28C4
:103134000D3A03199E2865282C0886008701403F14
:10314400AF00413FB0000230A8002808AC07B01F10
:10315400B4280330A8002808AD04AF09B009AF0AA9
:103164000319B00AB101B10A3108A800A901A835B0
:10317400A90D553028078400B030293D8500003F53
:10318400AA00013FAB002B083002031DCB282A08FC
:103194002F02031CD5280130A8002808B1070530E8
:1031A4003106031DB6282D0803390319E328200826
:1031B4008600210887002D3081000130A0070030EF
:1031C400A13D3108A8002808AE00FF30A800280857
:1031D400AE072E0A031965280A30F8000030F900FA
:1031E4002E08A800A901A835A90D55302807840088
:1031F400B030293D8500003FF000013FF100300868
:10320400F3002F08F200AD31F42598317108FB006A
:103214007008FA00AD310A2598317808303EAA00CA
:103224002A08B1002008860021088700310881009F
:103234000130A0070030A13DE728200886002108BE
:10324400870081010800AF00AE01AC31012499313F
:1032540072082100A5007108A400AC310124993141
:1032640072082100A7007108A6002F080C3E8600F2
:1032740001308700403F2000D900413FDA00423F3F
:10328400DB00433FDC0021002F088600013087006B
:103294000130493F2000DD00903184209931210024
:1032A400A0002008AE002E03031DEB292F08023EC8
:1032B400860001308700403FA000413FA100200864
:1032C400EC3EAC00FF30213DAD002F0886000130FC
:1032D400870001080F39A000A101A035A10DA03578
:1032E400A10D2F08023E860001308700403FA20056
:1032F400413FA30020082202AC002108233BAD007B
:103304000030F100F200AA31BB2299310030F10003
:10331400F200AA31BB22993121002508F2002408C9
:10332400F100AA31BB22993121002708F2002608B6
:10333400F100AA31BB22993121002C08F83E20006B
:10334400A000FF3021002D3D2000A100A531D12592
:1033540099312100A0002008AE002E03031DEB29A3
:103364002230A8000030A90022302000A000003044
:10337400A10021002D082000A30021002C0820001A
:10338400A2000030A400A500A53129259931210807
:103394002100AB00200020082100AA0002302000F8
:1033A400A0000030A1002430A2000030A300AA3005
:1033B400AF317E27993121002D082000B40021006F
:1033C4002C082000B300A03118202100A000200800
:1033D400AE002E0808002400C41EF22903300800A1
:1033E400FF30AB312523993108390319FB29043007
:1033F40008002330FA001A30FB000430AC314824B2
:1034040099312330FA001A30FB000230AC314824E1
:1034140099312300A401A50122000E137A30A931A9
:10342400A52199310030A931A52199312000200826
:103434008400210885000008A931A52199312000C4
:103444002108A5002008A4000130240784002508D1
:103454000318250A85000008A931A5219931200007
:103464002108A5002008A4000230240784002508B0
:103474000318250A85000008A931A52199312000E7
:103484002108A5002008A40003302407840025088F
:103494000318250A85000008A931A52199312000C7
:1034A4002108A5002008A40004302407840025086E
:1034B4000318250A85000008A931A52199312000A7
:1034C4002108A5002008A40005302407840025084D
:1034D4000318250A85000008A931A5219931230084
:1034E40028088400290885000008A931A5219931FC
:1034F400230029082000A500230028082000A40098
:1035040001302407840025080318250A85000008D3
:10351400A931A5219931230029082000A500230001
:1035240028082000A400023024078400250803187A
:10353400250A85000008A931A5219931230029080D
:103544002000A500230028082000A400033024073D
:10355400840025080318250A85000008A931A5213F
:103564009931230029082000A50023002808200001
:10357400A40004302407840025080318250A8500C4
:103584000008A931A5219931230029082000A500AC
:10359400230028082000A4000530240784002508FF
:1035A4000318250A85000008A931A52199312000B6
:1035B4002308A931A521993120002208A931A52188
:1035C40022000E170F302300A4070030A53D24006D
:1035D400C416013008000030BD000130BE000830C0
:1035E400BF000030C0000630AA002A08C100043021
:1035F400AA002A08C2000030C3000130C400083009
:103604003D3E86008701E3308400023085000630A9
:103614002000AA002A080319132B12001E00AA0B6B
:103624000F2BFF30240020052000AA0000302400C6
:1036340021052000AB000030240022052000AC004E
:103644000030240023052000AD001830AA35AB0D4E
:10365400AC0DAD0D890B282B003024002005200073
:10366400AE00FF30240021052000AF00003024000C
:1036740022052000B0000030240023052000B10002
:103684000830AE35AF0DB00DB10D890B432B0030B2
:10369400B200FF30B3000030B40024002108200041
:1036A400B205240022082000B305240023082000CA
:1036B400B405240023082000B500B601B70135087D
:1036C400B2043608B3043708B4043208B800330827
:1036D400B9003408BA00BB013808AE043908AF0495
:1036E4003A08B0043B08B1042A082E04CB002B0886
:1036F4002F04CC002C083004CD002D083104CE005A
:10370400FF302605AA0000302705AB00003028054D
:10371400AC0000302905AD001830AA35AB0DAC0D56
:10372400AD0D890B8F2B00302605AE00FF30270529
:10373400AF0000302805B00000302905B100083082
:10374400AE35AF0DB00DB10D890BA22B0030B20018
:10375400FF30B3000030B4002708B2052808B305D1
:103764002908B4052908B500B601B7013508B20423
:103774003608B3043708B4043208B8003308B90073
:103784003408BA00BB013808AE043908AF043A085B
:10379400B0043B08B1042A082E04D5002B082F04DA
:1037A400D6002C083004D7002D083104D800CF01EE
:1037B400D001D101D201D301D4016F30A000B030C7
:1037C400A1000630A2000830A3009931ED219A31FE
:1037D4002000AA002A08BC003C03031D082C3D302D
:1037E400F1000030F2001C30F3000030F400AC3182
:1037F400E2249A31AB31C1239A312000AA002A086D
:10380400BC003C03031D082C053008003C080800DC
:10381400A030AA3193229C312200A6002608AA00D7
:10382400E130F0000130F100AD3136259C31352D09
:10383400A030A23182220800023023006107240054
:10384400CA0000302300623D2400CB000030230076
:10385400633D2400CC0000302300643D2400CD00EF
:1038640020302200A6002608F5003230F600003091
:10387400F700A030AF3104279C3162302200A6004B
:1038840026082100EE00A030A4313A2408002300C9
:103894006408803A2200A60024004D08803A2200E1
:1038A40026022300031D662C24004C082300630217
:1038B400031D662C24004B0823006202031D662CA2
:1038C40024004A0823006102031C0800A030AC3124
:1038D4006E240800A030AA31D0229C31003A03198A
:1038E4000800A030AE31CB269C3176082200AC0013
:1038F4007508AB002B082C040319C32C00302C02D0
:10390400113003192B02031C8A2C2600B001902CC1
:103914002B08203E86000330870081016C3026008E
:103924002006031DB62C65302106031DB62C643019
:103934002206031DB62C6F302606031DA82C6E30FC
:103944002706031DA82C22008C16B62C6F302606E1
:10395400031DB62C66302706031DB62C66302806D8
:10396400031DB62C22008C1220302200A60026084B
:10397400F5003230F6000030F700A030AF310427F4
:103984009C3123006408803A2200A60024004D08DC
:10399400803A220026022300031DE02C24004C0858
:1039A40023006302031DE02C24004B082300620261
:1039B400031DE02C24004A0823006102031C0800B4
:1039C400023061072400CA0000302300623D240055
:1039D400CB0000302300633D2400CC0000302300E2
:1039E400643D2400CD001030AB310F239C317108AD
:1039F4002200A9007008A800A0302000A000033015
:103A0400A1001D30A200B030A3002200290820002C
:103A1400A500220028082000A40022000C0E890C16
:103A24000139A600A70126082000A60022002708C5
:103A34002000A700983161209C31A0302200A6000C
:103A440026082100D500A030A03100209C31710847
:103A5400D7007008D600A030A231ED220800A030B3
:103A6400A931CB21080022002A08003A03191A2C94
:103A7400013A03191E2C033A0319492C013A03197C
:103A84006C2C073A0319312D472D08004830F100FA
:103A94000030F2001C30F3000030F400AF313F2757
:103AA4009D3172082000BF007108BE001C303E0624
:103AB4003F04031D0800C0018830C6002730C7003A
:103AC4000830A6002608C400460886004708870078
:103AD4004631403FA600413FA700423FA800433F74
:103AE400A90029085906031D812D28085806031D1D
:103AF400812D27085706031D812D26085606031D10
:103B0400AB2D46088600470887004A31403FA6008F
:103B1400413FA70027084B06031D922D26084A069D
:103B2400031DAB2D46088600470887004C318101F0
:103B34000830483E8600870146088400470885000F
:103B44000630A60016001A00A60BA42DC001C00A58
:103B5400B42D0D30C6070030C73D0130C4024408FF
:103B6400031D662D240023082204210420040319C4
:103B740008001830483E86008701FF300105200008
:103B8400A600413100300105A70041310030010594
:103B9400A800413100300105A9001830A635A70D51
:103BA400A80DA90D890BD02D1830483E8600870139
:103BB40000300105AA004131FF300105AB0041315D
:103BC40000300105AC00413100300105AD00083082
:103BD400AA35AB0DAC0DAD0D890BEA2D0030AE004E
:103BE400FF30AF000030B0000030B1006008B20018
:103BF4006108B3006208B4006308B5000830B53644
:103C0400B40CB30CB20C890B012E3208AE05330888
:103C1400AF053408B0053508B105FF30B6000030F3
:103C2400B7000030B8000030B9006008BA0061087D
:103C3400BB006208BC006308BD001830BD36BC0C74
:103C4400BB0CBA0C890B202E3A08B6053B08B70505
:103C54003C08B8053D08B9053608AE043708AF047A
:103C64003808B0043908B1042E08AA042F08AB049C
:103C74003008AC043108AD042A08A6042B08A704B4
:103C84002C08A8042D08A9042400230820002906D0
:103C9400031D5C2E2400220820002806031D5C2E30
:103CA4002400210820002706031D5C2E2400200880
:103CB40020002606031D08004008031D3C2F883001
:103CC400C6002730C7008830C2002730C300083040
:103CD400A6002608C50046088600470887004C3120
:103CE40042088400430885000C31000801020318CF
:103CF4007F2E4308C7004208C6000D30C2070030BB
:103D0400C33D0130C5024508031D6D2E46088600DB
:103D1400470887004C3181010830483E86008701FE
:103D240046088400470885000630A60016001A00DD
:103D3400A60B982E0E30483E86008701FF30010501
:103D4400A600413100300105A700413100300105D2
:103D5400A800413100300105A9001830A635A70D8F
:103D6400A80DA90D890BB02E0E30483E86008701A0
:103D740000300105AA004131FF300105AB0041319B
:103D840000300105AC00413100300105AD000830C0
:103D9400AA35AB0DAC0DAD0D890BCA2E0030AE00AB
:103DA400FF30AF000030B0000030B1005608B20060
:103DB4005708B3005808B4005908B5000830B536A0
:103DC400B40CB30CB20C890BE12E3208AE053308E7
:103DD400AF053408B0053508B105FF30B600003032
:103DE400B7000030B8000030B9005608BA005708D0
:103DF400BB005808BC005908BD001830BD36BC0CC7
:103E0400BB0CBA0C890B002F3A08B6053B08B70562
:103E14003C08B8053D08B9053608AE043708AF04B8
:103E24003808B0043908B1042E08AA042F08AB04DA
:103E34003008AC043108AD042A08A6042B08A704F2
:103E44002C08A8042D08A904460886004708870002
:103E540046312608C03F2708C13F2808C23F290829
:103E6400C33F46088600470887004A314A08C03FD6
:103E74004B08C13F4F034E04031D08005030A000FF
:103E84000030A1000630A2000830A3009931ED21D2
:103E94009D312000A6002608C1004103031D08002F
:103EA4000830483E860087011230483E8400850170
:103EB4000630A60016001A00A60B5C2F0830483EF8
:103EC40086008701E330840002308500063020003C
:103ED400A60026080319722F12001E00A60B6E2FCF
:103EE4000E30483E86008701403F2000E000413FFD
:103EF400E100423FE200433FE300FF30240020059D
:103F04002000A6000030240021052000A700003076
:103F1400240022052000A8000030240023052000EE
:103F2400A9001830A635A70DA80DA90D890B942F4B
:103F34000030240020052000AA00FF3024002105C1
:103F44002000AB000030240022052000AC0000302B
:103F5400240023052000AD000830AA35AB0DAC0DBC
:103F6400AD0D890BAF2F0030AE00FF30AF00003035
:103F7400B000240021082000AE05240022082000FF
:103F8400AF05240023082000B005240023082000E6
:103F9400B100B201B3013108AE043208AF043308F2
:103FA400B0042E08B4002F08B5003008B600B701DD
:103FB4003408AA043508AB043608AC043708AD0449
:103FC40026082A04D60027082B04D70028082C0426
:103FD400D80029082D04D9000030CE000230CF00CB
:103FE4004830F1000030F2001C30F3000030F400DF
:103FF400AC31E2249D31AB31C1230800F3007308D6
:10400400F2007208F4007408860003308700010887
:10401400031911280130F2007208F4070528730807
:104024007402F000F101F01BF10308003308143EA0
:10403400BB000030343DBC00FF303B05B500003010
:104044003C05B6003508B600B50135083C04BB0094
:104054003608BC000230A0000030A1001030A200DD
:104064000030A3003B30AF317E27A0310E3020005A
:10407400A0000030A1001430A2000030A3000030E2
:10408400A400A500A5312925A0312108B9002008E4
:10409400B8000230A0000030A1001830A2000030A7
:1040A400A3003830AF317E27A031AB31C1232000CB
:1040B400B5003508BA003A080800C0302400A3004F
:1040C400A830A2000030A1000230A000FF30AF00F1
:1040D400FF30AE00FF30AD000030AC00C030B300A4
:1040E400A830B2000030B1000130B0000030A700A9
:1040F4000030A6000030A5000030A4000030AB0062
:104104000030AA000030A9000030A800F1017108B5
:10411400F0000130F035FF3E031D8C287035383E29
:104124008600023087000030C03F0030C13FC23FEC
:10413400C33F0130F0007008F10702307102031C24
:10414400892800302400C3000030C2000030C100C0
:104154000030C0000800F10023003608803A7E3E9B
:10416400031CFE2871082C3E8600023087000108DB
:10417400031DD22871082B3E8600023087000108F7
:10418400F00070082200EF0071082B3E8600023018
:10419400870001082C3E8600023087008101F82840
:1041A40071082B3E8600023087000108F000710878
:1041B4002C3E86000230870001082B3E8600023028
:1041C40087007008810071082C3E86000230870049
:1041D4000108F00071082B3E8600023087000108B8
:1041E4002C3E86000230870070088100FF30F0000A
:1041F40070082300B60708003603031D08002200D8
:10420400EF0108002400C41C0800A131BA21A13127
:104214006030F1000130F2000E30F3000030F400A1
:10422400AF313F27A131FF306C05D90000306D0557
:10423400DA005908DA00D9010C30603E86000130FA
:104244008700403FDC00413FDD005D08DC00DD010C
:10425400FF305C05DE0000305D05DF0059085E04B8
:10426400EC005A085F04ED003F299D314825A13137
:104274005C299131D221A1315C296D08083A0319D6
:104284004A29893A03195229073A031957295C29FB
:104294006C08003A03193B29063A031937295C29AB
:1042A4006C08003A03195C295C296C08DD3A03198F
:1042B4005C295C29AC31BB240800F800C430AB3164
:1042C4002523A131F700780886000230870077089B
:1042D40081000130F7007708F807C530AB3125239A
:1042E400A131F70078088600023087007708810042
:1042F4000130F7007708F807C230AB312523A1312C
:10430400F7007808860002308700770881000130C2
:10431400F7007708F807C330AB312523A131F70044
:104324007808860002308700770881000130F700A2
:104334007708F807C030AB312523A131F70078089E
:10434400860002308700770881000130F700770883
:10435400F807C130AB312523F70078088600023016
:104364008700770881000130F7007708F807080014
:10437400230026082704031DC3292130FA001A301C
:10438400C8292608FF3EFA00FF30273DFB000C3009
:10439400AC314824A13123002708FB002608FA0089
:1043A4000030AC314824A1310E133A30A931A52193
:1043B400A1310030A931A521A1312000A00020089D
:1043C4002300A6000030A931A521A1312000A000BE
:1043D40020082300A7000030A931A521A131200025
:1043E400A00020082400CE000030A931A521A1316D
:1043F4002000A00020082400CF000030A931A5210E
:10440400A1312000A00020082400D0000030A931F0
:10441400A5212000A00020082400D10022000E17AE
:1044240004302400CE020030CF3B08009831022033
:10443400A231A1310421A231E930F0000130F100B0
:10444400AD313625A23123006C08803A2000EF00FC
:1044540024006B08803A20006F022300031D422AC7
:1044640024006A0823006B02031D422A2400690801
:1044740023006A02031D422A2400680823006902FB
:10448400031C502AAB316E23A2310A302400E80702
:104494000030E93D0030EA3D0030EB3D240059088E
:1044A400803A2000EF0023006C08803A20006F025D
:1044B4002400031D6D2A23006B0824005802031DE9
:1044C4006D2A23006A0824005702031D6D2A230065
:1044D4006908240056020318712A87314C272300E7
:1044E4006C082400D90023006B082400D8002300A2
:1044F4006A082400D700230069082400D6000800B5
:10450400F7007708AD319025A231003A031D080069
:10451400770890310120A23177081A3E86000230D4
:1045240087000030C03FC13F77081C3E8600023040
:104534008700B430C03F0530C13F7708293E86006C
:104544000230870081010D30F50077082A3E86008D
:10455400023087007508810077081E3E860002300D
:10456400870081017708203E8600023087008101A0
:104574007708213E86000230870081017708223EB9
:1045840086000230870081017708233E86000230CE
:1045940087000030C03FC13F7708263E86000230C6
:1045A40087000030C03FC13F7708283E86000230B4
:1045B400870081017708253E86000230870081014B
:1045C4007708333E8600023087008101810A77082C
:1045D400AC31942408002000EF006F08AA31932224
:1045E400A231033A031D080020006F08253E86000F
:1045F400023087000108031D080021005508031933
:10460400080055082000ED006F08213E86000230A6
:1046140087006D0881006F08213E86000230870004
:104624000108ED006F08223E8600023087006D0805
:1046340081006F08233E860002308700210056085F
:10464400C03F5708C13F02302000ED006F08253EEF
:104654008600023087006D0881006F08263E8600C0
:104664000230870021005608C03F5708C13F200090
:104674006F082F3E8600023087000230C03F0030B2
:10468400C13F0530ED006F08313E860002308700DF
:104694006D0881001030ED006F08323E8600023054
:1046A40087006D0881006F089431B72408007508ED
:1046B400F9007608FA00FB01FC01003074020230B4
:1046C40003197302031C822BF701F801AA31182283
:1046D400A3312000A0002008F800AA311822A33139
:1046E4002000A0002008F7007708F9077808FA3DB1
:1046F4000030FB3DFC3D0230F3020030F43B5F2B05
:10470400730874040319972BF701F801AA311822CE
:10471400A3312000A0002008F800F7017708F9076A
:104724007808FA3D0030FB3DFC3D7B087C0403190E
:10473400BE2B7B08A0007C08A100A201A301FF30CE
:104744007905A400FF307A05A50000307B05A6009A
:1047540000307C05A7002408A0072508A13D2608F1
:10476400A23D2708A33D2308FC002208FB002108E2
:10477400FA002008F900972BF909FA09FB09FC094A
:104784007A08F4007908F30008002100BA00B63072
:10479400F1000030F2000430F3000030F400AF31D7
:1047A4003F27A33121003A08103E860001308700DC
:1047B4001600FF3AB0001600FF3AB0041600FF3AA4
:1047C400B0041600FF3AB00403190800132C3A0889
:1047D40099312521080004302000A0000030A100F8
:1047E400AE312826A33121003A08F1000130F2004D
:1047F4001430F3000030F400AF313F27A33121001F
:104804003A0886000130870001080F39053A031D74
:104814000800AC31012472082300AB007108AA001F
:104824000800FF303605B00000303705B10030080D
:10483400B100B00130083704B3003108B4003408C3
:10484400033A0319292C0B3A03192E2C392C33085B
:10485400033A0319ED2B392C3308003A0319E92BD9
:104864002A3A0319E92BD63A0319E92B392C080003
:104874002200A5002508AA319322A431013A031D80
:10488400080021006E08023E860002308700403F87
:104894002200A000413FA100423FA200433FA300E9
:1048A4002508023E8600023087002008C03F210808
:1048B400C13F2208C23F2308C33F21006E0886007F
:1048C4000230870022002508063E8400023085005D
:1048D400403F803F413F813F2508860002308700EA
:1048E40016000104031D832C25088600023087006E
:1048F40023003208C03F3308C13F0130B207003003
:10490400B33D22002508293E86000230870081013C
:104914000230A0002508333E8600023087002008BC
:1049240081002508103E86000230870024005E08BE
:10493400C03F5F08C13F6008C23F6108C33F220017
:1049440025082A3E8600023087008101810A250855
:10495400A0002008EE008A318622080000302000E2
:10496400A5000030A4000030A3000030A2000C30E9
:10497400B93E860001308700403FA600413FA700B2
:10498400423FA800433FA9001030B93E86000130E1
:104994008700403FAA00413FAB00423FAC00433F89
:1049A400AD0023004208F20072082000AE00AF01FF
:1049B4007108B1007008B0000C30F2007208A10058
:1049C4002136F2007208A1002630F2007208A0001D
:1049D40021080319022D200886008701403FF200B8
:1049E400413FF3007208A2077308A33D0030A43DC1
:1049F400A53D0130A1020230F2007208A007EA2CA2
:104A04002408F2002508F300F401F501FF30220523
:104A1400F600FF302305F70000302405F8000030CD
:104A24002505F9007608F2077708F33D7808F43D88
:104A34007908F53D7508A5007408A4007308A3005F
:104A44007208A2002308F1002208F00008000130D7
:104A5400A0070030A13DFF30AB312523A53120391B
:104A6400031D2D2D20002008233EFA001A30213D7D
:104A7400FB001030AC314824A53120002008220767
:104A8400A6002108233DA7002608223EFA001A307A
:104A9400273DFB001230AC314824A531FF30AB3147
:104AA4002523A5311039031DCB2D30302000A6005D
:104AB4002608F400FF30AA316D22A531FF30AB3156
:104AC4002523A5312039031D602D10302000A600B8
:104AD4002608F400FF30AA318022A5311630AD310A
:104AE4006225A53174082000AF007508B000B1013B
:104AF400B201240825040319AF2DA409A50924082B
:104B0400AF072508B03D0030B13DB23D3108320455
:104B14000319AF2D3108A6003208A700A801A90186
:104B2400FF302F05AA00FF303005AB0000303105FF
:104B3400AC0000303205AD002A08A6072B08A73DBB
:104B44002C08A83D2D08A93D2908B2002808B10069
:104B54002708B0002608AF00882DFF302F05A600D7
:104B640000303005A7002608A700A6012608300457
:104B7400A9002708AA002908AB002A08AC00AD0147
:104B8400AE012E08B2002D08B1002C08B0002B088D
:104B9400AF0020003008A1002F08A0000800203535
:104BA400A500210DA600E02D01302000A502003053
:104BB400A63B250826040319E72D0000FF30AB317E
:104BC4002523A5312039031DD62DFF30AB312523F4
:104BD400A5312039031D7D2E0230AD316225A5316A
:104BE40075082000A4007408A3002408FB0023080F
:104BF400FA001430AC314824A5310030AD316225BF
:104C0400A5317508FB007408FA001030AC31482453
:104C1400A53120002008A3072108A43D0030AD31B0
:104C24006225A531200020087407A7002108753DDE
:104C3400A8001A302802223003192702031C282E48
:104C44002708DF3EA700E530283DA8002808FB0020
:104C54002708FA001230AC314824A5311030200066
:104C6400A2002208F400FF30AA318022A5312030AE
:104C74002000A2002208F400FF30AA316D22A531E1
:104C840020002108F1002008F0002830F200003054
:104C9400F300AB318923A5317108A6007008A50083
:104CA4005D2E01302000A5020030A63B2508260415
:104CB4000319642E0000FF30AB312523A5312039C0
:104CC400031D532EFF30AB312523A5312039031D9D
:104CD4007D2E20002408FB002308FA000230AC31AA
:104CE4004824200020082300A407200021082300D2
:104CF400A53D0130080001000C30080022006E08B8
:104D0400203E8600023087000103031D08006E0860
:104D14001A3E860002308700403F2100D500413F03
:104D2400D60020006E0821005602031D9D2E20008F
:104D34006D0821005502031CA82E20006E082100D6
:104D4400DF0020006D082100DE00B32E22006E0873
:104D54001A3E860002308700403F2100DE00413FBA
:104D6400DF0022006E081F3E860002308700010823
:104D7400F100FF39031D0330F20021005F08F40045
:104D84005E08F300AF313F27A6316E081F3E860050
:104D940002308700010821005E07D50022006E085A
:104DA4001F3E860002308700210055088100220042
:104DB4006E081A3E860002308700403F2100D5006D
:104DC400413FD6005E085502D7005F08563BD80025
:104DD40022006E081A3E8600023087002100570820
:104DE400C03F5808C13F22006E08083E86000230CA
:104DF4008700403F2100D500413FD600423FD70005
:104E0400433FD8005E08D9005F08DA00DB01DC010B
:104E14005908D5075A08D63D5B08D73D5C08D83DEC
:104E240022006E080C3E86000230870021005508DF
:104E3400C03F5608C13F5708C23F5808C33F10300F
:104E4400D50022006E08323E860002308700210021
:104E54005508810022006E08283E86000230870033
:104E64008101810A6E089431B72422006E08283E1D
:104E7400860002308700810108002000A60123007B
:104E8400590E0F392000A400A501A435A50DA435A1
:104E9400A50D2408EC3EA800FF30253DA9002808F4
:104EA40029040319FB2F18302300E5000230E60023
:104EB400DA18E82FF42FAA311822A7312000A40011
:104EC4002408A700DD2F280829040319732F2908B3
:104ED400A1002808A000AE312826A7312000A8018F
:104EE400A9012000A601A60AE82F003029020330F8
:104EF40003192802031CA52FAA311822A731200068
:104F0400A4002408A70004302706031DA52FAC31F4
:104F14000124A73172082300E6007108E50020008F
:104F24002808FD3EA800FF30293DA90005302300D4
:104F34006602B53003196502031C732FB430E50013
:104F44000530E600732FA801A901A601E82FAA31B4
:104F54001822A7312000A4002408A7000130A802C9
:104F64000030A93B02302702031CA52F2708FE3E70
:104F7400A4002408A7002708A400A50125082902E5
:104F8400031DC62F24082802031CA52F2708A400EC
:104F9400A5012408A0002508A100AE312826A731C8
:104FA40020002708A400A50124082802A800250839
:104FB400293BA900732F2708003A0319652F013AEA
:104FC4000319E82F033A0319772FA92F0130200082
:104FD400A8020030A93B280A031D5D2F290A0319E2
:104FE400FE2F5D2F20002908A1002808A000AE3163
:0C4FF40028262000A601A60A26080800B6
:1052D600A0315F2008002300AA01AB0108001630A8
:1052E60021009700080018340234403441346930F4
:1052F600F000B030F1000800AA313822A931003A96
:10530600031D08007F29C03024009400203095003A
:10531600920108000030AD3162257508FB00740863
:10532600FA000800A9318D217B082300AF007A0816
:10533600AE00080022000E13FF30A931A52122007D
:105346000E170800F0002400951370089100141C35
:10535600AA2911080800013021009D00C0309E00D6
:105366009F019B019C0108006230320099009B015D
:105376009D0103309F009E010800F2007208F000B4
:105386000030F10070082400EC007108ED00080000
:10539600F9007908AA319322A931043A031D0800BD
:1053A6007908A031AD2008004D30DD001E30DC004C
:1053B600C230DB00E030DA000030A931C02108003D
:1053C6006400800101310130FE020030FF3B7F089E
:1053D6007E0403190034E429710823002B06031DFB
:1053E600F62970082A06031DFA2901300800003044
:1053F6000800C030E700A830E6000030E5001030B5
:10540600E4003C30E2000030E3000800AA31FA2252
:10541600AA318B170B17A931FC21AA31A231182208
:10542600AA319C310A24AA31112A22000E133A30DD
:10543600A931A521AA310030A931A521F1007108B1
:10544600F20022000E17720808006830F0000230E1
:10545600F100AD3136250A302400E8070030E93D79
:105466000030EA3D0030EB3D08001130AC31242419
:10547600AA317B082000A1007A08A000211D472A36
:10548600240044150130080000300800F100013006
:105496002300A4070030A53D22000E137A30A9315F
:1054A600A521AA317108A931A52122000E170800ED
:1054B6002200EF012300B6010030B2000430B30031
:1054C60000302400E1000030E0000030DF00003052
:1054D600DE000800F5007508AD31C125AA312200AD
:1054E6000E1375081F398038A931A521AA31740811
:1054F600A931A52122000E170800F5007508AD3167
:10550600C125AA3122000E1375081F39A038A9310A
:10551600A521AA317408A931A52122000E17080079
:10552600F700F6017708AD319025AA31003A031944
:10553600A52A7708333E8600023087000108F50069
:105546007508F60076080800FA017A08883E860093
:1055560087012730873D81010130F9007908FA0774
:1055660008307A02031CA82AE330A1315F21080023
:1055760002302300A4070030A53D22000E137A3026
:10558600A931A521AA317208A931A521AA3171082C
:10559600A931A52122000E170800F600F5017608AC
:1055A600AD319025AA31003A0319E32A7608253E43
:1055B6008600023087000108031DE32AF501F50A7B
:1055C600750808008531E925AA31AA31A722AA3132
:1055D600A9316B21AA31AA315B22AA31A931D7217F
:1055E600AA31A9317F21AA31AA3128220800AF3178
:1055F600BE27AA31A931B721AA31A9317221AA3110
:10560600A9318621AA31A931AE21AA31AB313B237A
:10561600AA31AA31E5220800F3007308F200F20D60
:10562600F20D21001D087206033972069D001D1435
:10563600000021009D149D181E2B1C08F1001B085C
:10564600F0000800F6007608AD31C125AB31220026
:105656000E1376081F39A931A521AB310030A931C7
:10566600A521F4007408F50022000E17750808003D
:1056760020009B019C010B309A00DC3099001A082F
:105686002300EE00200019082300ED002000111071
:10569600210011140030A931C021AB318731FD271B
:1056A6000800111023006E0820009A0023006D08E0
:1056B6002000990001302300AC070030AD3D0030DA
:1056C6002D02043003192C02031C0800803103202C
:1056D600AC01AD0108008830F1002730F200F3017B
:1056E6000130F00071088600720887004C3170089E
:1056F60081070D30F1070030F23D0130F0007008EF
:10570600F3070830730203180800732BF401F50140
:10571600701C912B7208F4077308F53D0130F235C1
:10572600F30D890B922B0130F136F00C890B972B78
:1057360070087104031D8B2B7508F1007408F000C6
:10574600080004302300A4070030A53D22000E13F4
:105756007A30A931A521AB317408A931A521AB3125
:105766007308A931A521AB317208A931A521AB3146
:105776007108A931A52122000E170800230024086C
:10578600233EFA001A30253DFB000630AC31482492
:10579600AB3124004419D12B02300800C41AD52B92
:1057A6000330080008302000A0002008F400FF3075
:1057B600AA316D222400C41201300800A300A401FE
:1057C600A40A2308A2002208F4009430883100209D
:1057D600AB3120002108FB002008FA009630AC31DE
:1057E6004824AB312000241C0800CA30AB312523E5
:1057F600AB312000A2002208A400F52B22000E13D4
:105806003A30A931A521AC310030A931A521AC31FE
:10581600F300F4017308F400F3017308F60074084A
:10582600F7000030A931A521F300F4017308F6044E
:105836007408F70422000E177708F2007608F100C4
:105846000800FD007D08FC007C08F40094308831D7
:105856000020AC31F401F40A9230AA316D22AC3149
:10586600CA30AB312523AC310139031D332CF40189
:10587600F40A9230AA318022AC319830AD316225DB
:105886007508FB007408FA000800FD007D08AD31BC
:10589600C125AC311F30FC007C08FD0522000E132B
:1058A6007D084038A931A521AC317A08A931A52156
:1058B600AC3122000E170000000022000E137D08F6
:1058C600013E4038A931A521AC317B08A931A5217B
:1058D60022000E1708002100EF006F08AD31902559
:1058E600AC31003A0319080021006F082A3E8600F1
:1058F60002308700810104302000EF0021006F088C
:10590600333E86000230870020006F0881002100A8
:105916006F082000EF006F082200EE008A31862211
:105926000800F10022006F080319A22C7108F0008C
:105936006F082C3E860002308700700881006F08D1
:10594600F00071082B3E8600023087007008810047
:105956007108F0007008EF0071082C3E86000230D6
:10596600870081010130F00070082300B6070800A7
:105976002400C410230026082704031DC62C21304A
:10598600FA001A30CB2C2608FF3EFA00FF30273DDE
:10599600FB000C30AC314824AC3123002708FB0057
:1059A6002608FA000030AC314824AC3140302000E3
:1059B600A0002008F400FE30AA316D22080072080B
:1059C600F6007108F50073082300A4077408A53DC6
:1059D60022000E137A30A931A521AC310130F30231
:1059E6000030F43B730A0319740A0319072D75086E
:1059F6008600760887000108A931A521AC3101305F
:105A0600F5070030F63DF12C22000E170800780845
:105A160079040319312DFD01FD0AF91B1C2D0130F6
:105A2600F835F90D890B132D0130FC007C08FD07B4
:105A3600102D79087B02031D222D78087A02031C9B
:105A4600282D7808FA027908FB3B0130F936F80C64
:105A5600890B292D0130FD02031D1C2D7B08F90041
:105A66007A08F800080000308B1B0130F4008B1315
:105A760024005D08F8005C08F7005B08F6005A0889
:105A8600F500741C482D8B17492D8B137008710473
:105A96000319592D70088600710887007508C03FE4
:105AA6007608C13F7708C23F7808C33F7808F300FD
:105AB6007708F2007608F1007508F0000800F90092
:105AC6007908AD31C125AD311F30F6007608F905EC
:105AD60022000E137908A931A521AD310030A93174
:105AE600A521AD31F6007608F70022000E1700005A
:105AF600000022000E137908013EA931A521AD311F
:105B06000030A931A521F6007608F80022000E170C
:105B16007808F5007708F4000800F400F101F201B6
:105B260022006F080319BF2D74080319BF2D6F08D3
:105B3600F0007008F300B32D73087406031DA62D3C
:105B4600F101F10ABF2D73082B3E86000230870053
:105B56000108F0007008F3000130F0007008F20749
:105B660073080319BF2D7208803AF0002300360827
:105B7600803AF002031C9F2D71080800F20072089B
:105B8600E039F1007108F300E030730603190800EC
:105B9600730823003506031908007308F10071081D
:105BA600B50022000E13BF30A931A521AD31033057
:105BB600A931A521AD3122000E17000000002200F8
:105BC6000E139F30A931A521AD317308F1000630BF
:105BD600F136890BEB2D7108A931A52122000E178C
:105BE6000800F501F601700871040319232EF70168
:105BF600F70AF11B082E0130F035F10D890BFF2D48
:105C06000130F4007408F707FC2D0130F535F60D68
:105C1600890B092E71087302031D132E7008720278
:105C2600031C1A2E7008F2027108F33B751401303A
:105C3600F136F00C890B1B2E0130F702031D082EDE
:105C46007608F1007508F000080024004F082000CF
:105C56002102031D322E24004E0820002002031CC0
:105C66003C2E24004F082000A10024004E082000EE
:105C7600A00020082104031908000030AD31622578
:105C8600AE3175082000A3007408A2002008A20700
:105C96002108A33D2308FB002208FA000030AC319E
:105CA6004824200020082400CE02200021082400D9
:105CB600CF3B08008830F8002730F900FA01780851
:105CC6008600790887004631403FF400413FF500E1
:105CD600423FF600433FF70073087706031D7D2E0B
:105CE60072087606031D7D2E71087506031D7D2E2E
:105CF60070087406031D842E7908F1007808F000F8
:105D060008000D30F8070030F93D0130F400740842
:105D1600FA0708307A02031C622EF001F10108002E
:105D26000030AD316225AE3175082000B20074082E
:105D3600B1002908F4002808F3002B08F6002A0809
:105D4600F500A3315923AE317308B3007408B400CB
:105D5600B501B6013208FB003108FA000030AC315B
:105D66004824FF3020003305AC0000303405AD0078
:105D76002C08AD00AC01FF303405AF00003035050E
:105D8600B0002C082F04A8002D083004A900080034
:105D9600FA00F801F9017A08AD319025AE31003AE2
:105DA6000319FF2E7A08203E860002308700010381
